:020000040800F2
:10000000C008002045010008F30F0008050D000896
:10001000F10F0008B10100085D10000800000000A9
:10002000000000000000000000000000F70F0008C2
:10003000B301000800000000F50F0008F90F0008E8
:100040005F0100085F0100085F0100085F01000810
:100050005F0100085F0100085F0100085F01000800
:100060005F0100085F0100085F0100085F010008F0
:100070005F0100085F0100085F0100085F010008E0
:100080005F0100085F0100085F0100085F010008D0
:100090005F0100085F0100085F0100085F010008C0
:1000A0005F0100085F0100085F0100085F010008B0
:1000B0005F0100085F0100085F0100085F010008A0
:1000C0005F0100085F0100085F0100085F01000890
:1000D0005F0100085F0100085F0100085F01000880
:1000E0005F0100085F0100085F0100085F01000870
:1000F0005F0100085F0100085F0100085F01000860
:100100005F0100085F0100085F0100085F0100084F
:100110005F0100085F0100085F0100085F0100083F
:100120005F0100085F0100085F0100085F0100082F
:10013000DFF80CD000F02AF8004800479D100008B6
:10014000C00800200648804706480047FEE7FEE753
:10015000FEE7FEE7FEE7FEE7FEE7FEE7FEE7FEE777
:100160005B10000831010008D2B201E000F8012B59
:10017000491EFBD270470022F6E710B513460A4627
:1001800004461946FFF7F0FF204610BD064C074D08
:1001900006E0E06840F0010394E807009847103457
:1001A000AC42F6D3FFF7C8FF9C2A0008BC2A00081F
:1001B000FEE7704772B6FEE770B5044600F00AF934
:1001C0000546601C02D004480078044400F002F99F
:1001D000401BA042FAD370BD580000202DE9F84F13
:1001E000DFF8C891002409F1040A0AF1040B234640
:1001F0000F270BF1040ED1E00125A54006EA050208
:10020000AA4276D1DFF8A8C14E68A6EB0C08664575
:100210002BD00DDC032E34D005DC36B3012E19D0E3
:10022000022E2FD11BE0112E16D0122E2AD119E04A
:10023000B8F5881F19D006DCB8F5803F15D0B8F5A1
:10024000801F1FD111E0B8F5001F0ED0B8F5041FB4
:1002500018D10AE0CB6815E0CB681B1D12E0CB6813
:1002600008330FE0CB680C330CE08B682BB1012B0B
:100270004FF0080303D0456104E0042302E0056168
:1002800000E00023FF2A01D8064601E000F1040641
:100290004FEA840501D9A5F12005D6F8008007FAB8
:1002A00005FC28EA0C0803FA05F548EA0508C6F833
:1002B00000804D68ED0070D53E4DAE6946F00106F8
:1002C000AE61AD6924F0030605F0010500953A4DD5
:1002D00006EB050CDCF80850A607360F07FA06F8FF
:1002E00025EA0805DFF8D480404503D14FF0000827
:1002F00025E052E0DFF8C880404502D14FF0010808
:100300001DE0DFF8C080404502D14FF0020816E042
:10031000DFF8B480404502D14FF003080FE0DFF86A
:10032000AC80404502D14FF0040808E0DFF8A0801F
:10033000404502D14FF0050801E04FF0060808FAE9
:1003400006F848EA0508CCF808804D68D9F800603E
:10035000ED034D4601D5164300E096432E604D68EF
:10036000DAF80060AD03554601D5164300E0964328
:100370002E604D68DBF80060ED025D4601D5164346
:1003800000E096432E604D68DEF80060AD027546D1
:1003900001D5164300E096432E60641C0A68164699
:1003A000E2407FF429AFBDE8F88F0000000401406F
:1003B0000000111000100240000001400008014040
:1003C000000C0140001001400014014000180140E1
:1003D000001C014001488068704700005800002060
:1003E00070B5040025D094F83D00002520B984F8AC
:1003F0003C50204600F050F9242084F83D0020684D
:10040000016821F0010101602068016841F40041A8
:1004100001602068016821F40041016000F088FA61
:100420004D4A6168914201D84C4900E04C498842EC
:1004300001D2012070BD4B492368B0FBF1F15E6829
:1004400026F03F060E435E606368934206D94FF480
:10045000967359434FF47A73B1FBF3F12368491C47
:100460001E6A26F03F06314319626168914210D836
:100470004900401EB0FBF1F2521CC2F30B02042AE9
:1004800001D2042022E0B0FBF1F0401CC0F30B00CD
:100490001CE0A268F2B301EBC10303EB0116431E9B
:1004A000B3FBF6F35B1C43F480431B0549D092B3C6
:1004B00001EBC10202EB0111401EB0FBF1F0401C48
:1004C000C0F30B0040F4804040F400402168CA694A
:1004D0004CF6FF739A431043C861D4E907100143F7
:1004E0002068026822F0C00211430160D4E90301D0
:1004F00001432068826848F2FF339A4311438160C8
:10050000D4E9050108432168CA6822F0FF021043BC
:10051000C86001E00EE016E02068016841F00101CA
:1005200001602564202084F83D00256384F83E5056
:10053000002070BD01EB4106431EB3FBF6F35B1CCC
:10054000B3E70120C2E701EB4101401EB0FBF1F02F
:10055000401CC0F30B00B7E7A086010080841E009A
:1005600000093D0040420F002DE9FF4F83B09A463D
:10057000DDE9119793460446DDF84080FFF72AFF36
:10058000054694F83D0020287FD1192301224049D7
:100590002046009500F048FC002876D194F83C00F5
:1005A000012872D0012084F83C0020680168C90746
:1005B00003D1016841F0010101602068016821F464
:1005C00000610160212084F83D00402084F83E0055
:1005D00000262664C4F82480A4F82A90608D208523
:1005E0002C48E062CDE9007553465A4620460499EE
:1005F00000F0A0FB70B930E02A463946204600F0F2
:1006000092FC58B1206C042804D12068016841F4A0
:1006100000710160012007B0BDE8F08F606A2168B9
:1006200000780861606A401C6062218D491E89B2B1
:100630002185628D521E628522685369DB435B0708
:100640000BD469B100781061606A401C6062208D33
:10065000401E2085608D401E6085208D0028CBD1F6
:100660002A463946204600F0B9FB0028CAD154F882
:100670003D0B016841F400710160202004F81E095F
:10068000E67766770020C6E7FFE70220C3E70000B1
:10069000020010000000FFFF10B586B0002100919D
:1006A00001910291039100680F4988421AD10F4CC1
:1006B000A06940F00800A061A069694600F0080048
:1006C0000490C0200090122001900320039008485D
:1006D000FFF784FDE06940F40010E061E06900F498
:1006E0000010049006B010BD0054004000100240FD
:1006F000000C014002488168027811448160704713
:1007000058000020074810B5016841F01001016051
:10071000032000F065F8002000F006F800F024F84F
:10072000002010BD0020024070B50D4D04464FF46E
:100730007A712878B1FBF0F00A490968B1FBF0F052
:1007400000F0CCFA48B9102C07D200222146501EE6
:1007500000F026F800206C6070BD012070BD000024
:1007600058000020640000200B4808B5816941F062
:1007700001018161816901F001010091C16941F0CC
:100780008051C161C06900F0805000900348416809
:1007900021F0E061416008BD00100240000001400E
:1007A000F0B40E4B1B680C46C3F30223C3F10705DC
:1007B000042D00D90425191D072901D2002300E0CA
:1007C000DB1E012606FA05F1491E214099409E4094
:1007D000761E16403143F0BC00F041BC0CED00E049
:1007E000064900F0070208684FF6FF03184040EA88
:1007F0000220034A10430860704700000CED00E03F
:100800000000FA052DE9F0470F46050061D0434E80
:10081000306800F00700B84209D2306820F00700C5
:1008200038433060306800F00700B84251D1286882
:100830003B4C810712D5400703D5606840F4E06067
:1008400060602878000703D5606840F460506060FD
:100850006068A96820F0F000084360602878C0074D
:1008600028D06868012810D02168022810D0890794
:1008700000292EDA616821F0030101436160FFF76E
:10088000A9FD804641F288390DE021688903EFE730
:100890008901EDE7FFF79EFDA0EB0801494502D96C
:1008A0000320BDE8F0876068696800F00C00B0EBD9
:1008B000810FEFD1306800F00700B8420BD93068E3
:1008C00020F0070038433060306800F00700B8427D
:1008D00001D00120E5E72878400705D56068E96880
:1008E00020F4E060084360602878000706D560685F
:1008F000296920F4605040EAC100606000F028F8E7
:100900006168084AC1F30311515CC8400649086098
:1009100006480068FFF708FF0020C2E700200240F9
:1009200000100240822A0008640000205C000020C1
:100930000448054900684968044AC1F30221515C32
:10094000C84070476400002000100240922A00084E
:1009500012A185B00FC98DE80F0014A0144A0068D9
:1009600004905168134801F00C03042B10D0082B9D
:100970000ED1C1F38343C9031DF803000AD55168A2
:1009800004AAC1F34041515C0A4A5043B0FBF1F064
:1009900005B0704708494843FAE700000203040520
:1009A000060708090A0B0C0D0E0F101001020000BB
:1009B0000010024000127A0000093D002DE9F84FB6
:1009C000040070D02078C04DC00749D06868C0F3DB
:1009D0008100012807D06868C0F38100022809D18E
:1009E0006868C00306D52868800339D56068002888
:1009F000E7D035E06068B0F5803F0BD010B1B0F5BE
:100A0000A02F11D0286820F480302860286820F4B6
:100A1000802002E0286840F480302860606890B14F
:100A2000FFF7D8FC06460AE0286840F480202860DA
:100A3000F0E700BFFFF7CEFC801B642873D828685E
:100A40008003F7D50CE0FFF7C5FC064605E000BFC4
:100A5000FFF7C0FC801B6428F0D828688003F7D417
:100A600020789A4E80074FF001094FF0000839D5E1
:100A7000686810F00C0F07D06868C0F38100022886
:100A800009D16868C00306D42868800714D5206996
:100A9000012808D110E02069B0B1C6F80090FFF736
:100AA00099FC074605E00AE1FFF794FCC01B022809
:100AB000C4D828688007F7D52868616920F0F80055
:100AC00040EAC10028600DE0C6F80080FFF782FC14
:100AD000074604E0FFF77EFCC01B022823D82868E5
:100AE0008007F7D4207800072CD57948A169D9B1BF
:100AF000C0F80090FFF76EFC074604E0FFF76AFCC1
:100B0000C01B02280FD8686A8007F7D571484FF4D8
:100B1000FA510068B0FBF1F0009000BF0098411E50
:100B20000091FAD20EE080E0C0F80080FFF752FC9E
:100B3000074604E0FFF74EFCC01B022875D8686A20
:100B40008007F7D42078400760D5E8690027C00007
:100B500008D4E86940F08050E861E869012700F0B6
:100B6000805000905C480168C90513D40168834631
:100B700041F480710160FFF72DFC824606E000BF62
:100B8000FFF728FCA0EB0A0064284ED8DBF8000031
:100B9000C005F5D5E06801280AD008B1052813D0B2
:100BA000286A20F001002862286A20F0040002E090
:100BB000286A40F001002862E06841F2883B98B161
:100BC000FFF708FC82460BE0286A40F00400286228
:100BD000EEE700BFFFF7FEFBA0EB0A0159455AD82C
:100BE000286A8007F6D50CE0FFF7F4FB824605E0A3
:100BF000FFF7F0FBA0EB0A0159454CD8286A8007A3
:100C0000F6D41FB1E86920F08050E861E06988B34C
:100C10006968C1F38101022944D00228C6F86080C6
:100C200004D0FFF7D7FB044638E034E0FFF7D2FBEF
:100C3000074604E0FFF7CEFBC01B02282BD828682C
:100C40008001F7D4206AB0F5803F05D16868A168BB
:100C500020F4003008436860D4E90801084369685B
:100C600021F4741108436860C6F86090FFF7B2FB86
:100C7000044606E025E000BFFFF7ACFB001B02289E
:100C800009D828688001F7D51BE000BFFFF7A2FB59
:100C9000001B022802D90320BDE8F88F28688001D4
:100CA000F4D40EE00128F7D06868226A00F480319D
:100CB000914204D1616A00F47010884201D0012091
:100CC000EAE70020E8E7000000100240000042428E
:100CD00080044242640000200070004010B5401EB5
:100CE000B0F1807F01D3012010BD4FF0E02460619E
:100CF0000F21601700F0B3F90020A06107202061E8
:100D0000002010BDFEE701684A69D24352050FD4A6
:100D10006FF480624A61002140F8301F2022427344
:100D20008173026942F0040202610173012070477D
:100D3000002070472DE9F843044600680D46DDE9C0
:100D4000089701689846164641F4807101604B4649
:100D500000224FF001112046009700F065F848B1DD
:100D600020680068C00502D54FF40070206403209D
:100D7000BDE8F883216805F0FE0008613B464A465D
:100D80001549204600F084F888B9206841698069D7
:100D900000903A464946204600F0C5F848B1206C1C
:100DA000042804D12068016841F400710160012029
:100DB000DEE7F5B2B8F1010F09D02168300A086109
:100DC0003A464946204600F0AEF80028E7D12068B0
:100DD00005610020CCE700000200010070B5164656
:100DE0000D4604460DE02046FFF78DFF08B10120B7
:100DF00070BD681C05D0FFF7EDFA801BA84207D82C
:100E000035B120684069C0434007ECD4002070BD74
:100E1000002044F8300F20216173A073216941F054
:100E2000200121612073E2E72DE9F0471E4690463C
:100E30000D460446C1F30747DDF8209008E0701C1A
:100E400006D0FFF7C7FAA0EB0900B0420FD876B181
:100E50002068012F18D0806925EA00000004000CEA
:100E600014D000214145EAD00020BDE8F0870020E1
:100E700044F8300F20216173A073216941F02001F3
:100E8000216120730120F0E74069E5E70121E9E7EE
:100E90002DE9F0479A4691460E46044600254FF04C
:100EA0002008C1F3074725E020684069C04340059A
:100EB00014D42068016841F40071016021686FF466
:100EC00080604861256384F83D8084F83E50206C42
:100ED00040F00400206484F83C501FE0B9F1FF3F6B
:100EE00008D0FFF777FAA0EB0A0149450CD8B9F111
:100EF000000F09D02068012F13D0806926EA000076
:100F00000004000C0BD0CFE744F8305F84F80D806C
:100F1000A573206940F02000206125730120BDE801
:100F2000F0874069EAE770B516460D4604460DE0C5
:100F30002046FFF7E8FE08B1012070BD681C05D00F
:100F4000FFF748FA801BA84207D835B120684069EE
:100F5000C0430006ECD4002070BD002044F8300FE0
:100F600020216173A073216941F020012161207368
:100F7000E2E700000D4808B5816941F01001816188
:100F8000816901F010010091816941F004018161E2
:100F9000816901F004010091816941F008018161DA
:100FA000806900F00800009008BD000000100240B9
:100FB0000D4810B50B4901600C49416000214FF408
:100FC00080428160C0E9031241618161C1610162B7
:100FD000FFF706FA002803D0BDE81040FFF7EAB893
:100FE00010BD00000054004068000020A0860100F1
:100FF000FEE7FEE770477047FFF77CBB30B58FB068
:1010000028216846FFF7B7F814210AA8FFF7B3F8BC
:1010100001210804CDE90010002402940225049166
:10102000CDE907504FF4E01009906846FFF7C6FC81
:1010300008B172B6FEE70F20CDE90A054FF48060D3
:10104000CDE90C4002210AA80E94FFF7DBFB002833
:1010500001D072B6FEE70FB030BD7047FEE709075A
:10106000090E002804DB00F1E02080F8001470472E
:1010700000F00F0000F1E02080F8141D704702E03E
:1010800008C8121F08C1002AFAD170477047002013
:1010900001E001C1121F002AFBD170470EB5FFF716
:1010A00031FBFFF7ABFFFFF765FFFFF781FF284834
:1010B00000F094F808B172B6FEE74FF47A74204657
:1010C000FFF77AF8002000F079F8214800F0D4F911
:1010D0002046FFF771F81F480124019441680091F0
:1010E000002103681CA2084600F048FA1C4D019438
:1010F0001CA26868009012210A202B6800F03EFABA
:101100000294D5E90001CDE9000103234FF4FA72FE
:101110002421142000F076F90024002504F164064F
:10112000F0B20122294600F029F86D1CEDB2402DE5
:10113000F6D3641CE4B21C2CEFD3012300222C2133
:10114000142000F0F1F8024800F096F9FEE70000E4
:10115000680000204800002073736431333036008B
:10116000400000204C695F5A696900000246012076
:1011700000E05043491EC9B2FBD2704770B58028C9
:1011800013D2402911D20B4B012401F007051E791F
:10119000AC40094BC90800EBC1100EB132B101E0FF
:1011A000012A03D0195CA143195470BD195C214375
:1011B000FAE7000050000020BC00002010B5064AED
:1011C00000214FF4806328B1FF245454491C9942F4
:1011D000F9D310BD0024F8E7BC00002070B5054627
:1011E000C820FEF7E9FFAE21284600F0B9F9044611
:1011F0000221284600F0B4F904441021284600F0EA
:10120000AFF904444021284600F0AAF90444B02173
:10121000284600F0A5F904448121284600F0A0F9F1
:101220000444FF21284600F09BF90444A1212846EC
:1012300000F096F90444A621284600F091F90444F0
:10124000A821284600F08CF904443F21284600F0EC
:1012500087F90444C821284600F082F90444D321C8
:10126000284600F07DF904440021284600F078F972
:101270000444D521284600F073F90444802128460F
:1012800000F06EF90444D821284600F069F90444BE
:101290000521284600F064F90444D921284600F0CD
:1012A0005FF90444F121284600F05AF90444DA2198
:1012B000284600F055F904441221284600F050F960
:1012C0000444DB21284600F04BF904443021284631
:1012D00000F046F904448D21284600F041F9044409
:1012E0001421284600F03CF90444AF21284600F0C0
:1012F00037F9E04201D0012070BD0020FFF75EFF0A
:10130000284600F0B9F804480021018041800121FD
:101310004171002070BD000050000020014A108083
:1013200051807047500000202DE9F04F9946134638
:101330008A468346FFF7F2FF3048DFF8C480002575
:1013400000EB83160024775D27FA04F0C00709D06C
:1013500098F8021098F8000021442844C9B2C0B29D
:101360004A460BE0B9F1000F2CD0002298F8021089
:1013700098F8000021442844C9B2C0B2FFF7FEFE2D
:10138000641CE4B2082CDFD36D1CEDB2102DD9D350
:101390000AF10800C1B25846FFF7C0FF00257019D6
:1013A0005FF0000490F8207027FA04F0C0070BD01B
:1013B00098F8021098F8000021442844C9B2C0B23D
:1013C0004A460DE00122D1E7B9F1000F14D0002206
:1013D00098F8021098F8000021442844C9B2C0B21D
:1013E000FFF7CCFE641CE4B2082CDDD36D1CEDB21B
:1013F000102DD4D3BDE8F08F0122E9E700000020D2
:10140000500000202DE9FF4F82B00026DDE910A931
:10141000DDF83CB01D46804634460BF0FF0726E061
:10142000281B401EC1B20A20FFF7A0FE0499B1FBA1
:10143000F0F00A21B0FBF1F201FB120026B9691E9F
:101440008C4201DA38B101263030C2B207FB048089
:10145000C0B25B4604E007FB0480C0B25B462022BA
:10146000CDE900A9039900F031F8641CE4B2AC4264
:10147000D6D306B0BDE8F08F2DE9FE4300246425E5
:10148000114F8046802600BF04F1B000C1B2404633
:1014900000F066F80221404600F062F81021404654
:1014A00000F05EF807EBC410CDE9000601234022EE
:1014B000782102954046FFF757F8641CE4B2082CE7
:1014C000E2D3BDE8FE830000BC0000202DE9F04F10
:1014D0009246DDF824B0FFF721FF2048DFB20188F3
:1014E0003944802906D281464088C3F30726304418
:1014F000402802D30020BDE8F08F002528E000BF7F
:10150000AAF1200000FB065000243BF810801CE0EC
:1015100008FA04F0000409D599F8021099F80000BF
:1015200029442044C9B2C0B20A9A0BE00A9898B183
:101530005FF0000299F8021099F800002944204455
:10154000C9B2C0B2FFF71AFE641CA742E0D86D1CF6
:10155000AE42D5D85046CEE70122EBE7500000203E
:1015600003B583B00A23012204A98DE80E001346B7
:1015700000227821FEF7F8FF05B000BD2DE9FC47F9
:101580001F46DDE90A9814468A460546DEB20FE09A
:10159000CDE900983B4651462846FFF797FF217852
:1015A000884202D0C8B2BDE8FC877019C5B2641C7D
:1015B0002278002AECD1D0B2F5E70000000000004C
:1015C000000000000000000000000000000000100B
:1015D00000100010001000100010000000100000AB
:1015E0000000002800280028000000000000000083
:1015F00000000000000000240024007C00240048BB
:10160000007C0048004800000000003800540050F2
:10161000003800140054005400380010000000206E
:101620000054005800300028005400140008000046
:101630000000001000280028001000340048004876
:101640000034000000000010001000100000000036
:101650000000000000000000000000080010002052
:1016600000200020002000200020001000080020A2
:10167000001000080008000800080008000800101A
:1016800000200010003800100028000000000000BA
:101690000000000000000000000000100010007CAE
:1016A000001000100000000000000000000000001A
:1016B00000000000000000000010001000100000FA
:1016C00000000000000000000038000000000000E2
:1016D000000000000000000000000000000000000A
:1016E00000100000000000080008001000100010AA
:1016F00000100020002000000000003800440044DA
:101700000054004400440044003800000000001071
:1017100000300050001000100010001000100000F9
:1017200000000038004400440004000800100020BD
:10173000007C000000000038004400040018000491
:1017400000040044003800000000000800180028D1
:1017500000280048007C0008000800000000007C11
:1017600000400040007800040004004400380000FD
:101770000000003800440040007800440044004469
:10178000003800000000007C000400080010001079
:101790000020002000200000000000380044004429
:1017A00000380044004400440038000000000038C5
:1017B000004400440044003C0004004400380000A1
:1017C0000000000000000010000000000000000009
:1017D00000100000000000000000000000100000E9
:1017E0000000000000100010001000000000000CBD
:1017F000003000400030000C00000000000000003D
:1018000000000000007C0000007C000000000000E0
:1018100000000000000000600018000400180060D4
:101820000000000000000038004400040008001020
:101830000010000000100000000000380044004CC0
:101840000054005C00400040003800000000001020
:101850000028002800280028007C004400440000E4
:101860000000007800440044007800440044004434
:1018700000780000000000380044004000400040B4
:1018800000400044003800000000007000480044A0
:101890000044004400440048007000000000007C48
:1018A00000400040007C004000400040007C000000
:1018B0000000007C004000400078004000400040F4
:1018C0000040000000000038004400400040005C80
:1018D000004400440038000000000044004400447C
:1018E000007C004400440044004400000000003834
:1018F0000010001000100010001000100038000050
:10190000000000040004000400040004000400447B
:101910000038000000000044004800500060005003
:101920000048004800440000000000400040004023
:101930000040004000400040007C000000000044E7
:10194000006C006C0054004400440044004400005B
:10195000000000440064006400540054004C004C3B
:1019600000440000000000380044004400440044EB
:1019700000440044003800000000007800440044A7
:1019800000440078004000400040000000000038A3
:101990000044004400440044004400540038000463
:1019A00000000078004400440044007800480048EB
:1019B00000440000000000380044004000300008EF
:1019C00000040044003800000000007C00100010FB
:1019D0000010001000100010001000000000004473
:1019E0000044004400440044004400440038000027
:1019F0000000004400440044002800280028001093
:101A00000010000000000044004400540054005442
:101A1000006C002800280000000000440028002876
:101A200000100010002800280044000000000044BE
:101A300000440028002800100010001000100000D2
:101A40000000007C0004000800100010002000408E
:101A5000007C0000000000180010001000100010B2
:101A600000100010001000100018002000200010CE
:101A700000100010001000080008000000000030F6
:101A800000100010001000100010001000100010D6
:101A90000030001000280028004400000000000072
:101AA0000000000000000000000000000000000036
:101AB000000000000000000000FE002000100000F8
:101AC0000000000000000000000000000000000016
:101AD000000000380044003C0044004C003400008A
:101AE00000000040004000580064004400440064CE
:101AF00000580000000000000000003800440040D2
:101B000000400044003800000000000400040034DD
:101B1000004C00440044004C003400000000000071
:101B2000000000380044007C004000440038000001
:101B30000000000C0010007C0010001000100010CD
:101B4000001000000000000000000034004C0044C1
:101B50000044004C0034000400780040004000586D
:101B600000640044004400440044000000000010F1
:101B700000000070001000100010001000100000A5
:101B80000000001000000070001000100010001095
:101B90000010001000E000400040004800500060CD
:101BA00000500048004400000000007000100010C9
:101BB00000100010001000100010000000000000D5
:101BC00000000078005400540054005400540000F9
:101BD000000000000000005800640044004400447D
:101BE00000440000000000000000003800440044F1
:101BF00000440044003800000000000000000058CD
:101C000000640044004400640058004000400000AC
:101C100000000034004C00440044004C0034000438
:101C20000004000000000058006400400040004034
:101C300000400000000000000000003800440030B8
:101C40000008004400380000000000200020007858
:101C500000200020002000200018000000000000EC
:101C600000000044004400440044004C00340000E4
:101C70000000000000000044004400280028002864
:101C80000010000000000000000000540054005448
:101C9000006C002800280000000000000000004444
:101CA0000028001000100028004400000000000080
:101CB000000000440044002800280010001000101C
:101CC000006000000000007C0008001000200040C0
:101CD000007C000000000018001000100010002020
:101CE000002000100010001000180010001000105C
:101CF0000010001000100010001000100010003044
:101D00000010001000100008000800100010001063
:101D100000300000000000000074004C00000000D3
:101D200000000000000000000000000000000000B3
:101D300000000000000000000000000000000000A3
:101D4000000000000000000000000000000C000C7B
:101D5000000C000C000C000C000C000C000C000C23
:101D6000000C0000000C000C00000000000000004F
:101D7000001B001B001B001B001B000000000000DC
:101D80000000000000000000000000000000000053
:101D9000000000008019801980198019C07FC07F61
:101DA00080190033C07FC07F00330033003300331D
:101DB0000000000000000000001E003F80758065EC
:101DC0000074003C001E00078005806580658075FA
:101DD000003F001E0004000400000000007000D856
:101DE00040D8C0D880D900730006000C801BC036D4
:101DF000C066C046C006800300000000000000006E
:101E0000001E003F003300330033001E000CC03CB6
:101E1000C066806380618063C03E801C000000005B
:101E200000000000000C000C000C000C000C000076
:101E300000000000000000000000000000000000A2
:101E40000000000000008000000100030006000602
:101E50000004000C000C000C000C000C000C000432
:101E6000000600060003000180000020001000189A
:101E7000000C000C00040006000600060006000628
:101E800000060004000C000C0018001000200000E8
:101E9000000C002D003F001E003300000000000079
:101EA0000000000000000000000000000000000032
:101EB0000000000000000000000C000C000C000CF2
:101EC000C0FFC0FF000C000C000C000C0000000064
:101ED0000000000000000000000000000000000002
:101EE00000000000000000000000000000000000F2
:101EF000000C000C000400040008000000000000BA
:101F0000000000000000000000000000001E001E95
:101F100000000000000000000000000000000000C1
:101F200000000000000000000000000000000000B1
:101F30000000000000000000000C000C0000000089
:101F40000000000000030003000300060006000676
:101F50000006000C000C000C000C00180018001803
:101F60000000000000000000001E003F0033806100
:101F700080618061806D806D8061806180610033EF
:101F8000003F001E00000000000000000006000EE0
:101F9000001E0036002600060006000600060006A9
:101FA0000006000600060006000000000000000019
:101FB000001E003F80738061806180010003000685
:101FC000000C001800300060807F807F000000005F
:101FD00000000000001C003E006300630003000ED0
:101FE000000E00038001800180618073003F001EAD
:101FF00000000000000000000006000E000E001EA1
:10200000001E0016003600360066807F807F0006C6
:10201000000600060000000000000000007F007FB6
:10202000006000600060006E007F806380018001BE
:1020300080618073003F001E00000000000000006F
:10204000001E003F803380610060006E007F80735F
:102050008061806180618033003F001E00000000CD
:1020600000000000807F807F8001000300030006E5
:102070000006000C000C000C0008001800180018E6
:102080000000000000000000001E003F806380612F
:1020900080610021001E003F80618061806180615D
:1020A000003F001E0000000000000000001E003F76
:1020B00000738061806180618073803F801D80013A
:1020C00080610073003F001E00000000000000005F
:1020D0000000000000000000000C000C00000000E8
:1020E0000000000000000000000C000C00000000D8
:1020F0000000000000000000000000000000000CD4
:10210000000C00000000000000000000000C000CAB
:10211000000400040008000000000000000080002F
:102120008003000E003800600038000E800380003D
:10213000000000000000000000000000000000009F
:1021400000000000807F807F00000000807F807F93
:10215000000000000000000000000000000000007F
:1021600000000000000000400070001C000780011B
:102170000007001C0070004000000000000000008C
:1021800000000000001F803FC071C060C000C0019F
:1021900080030007000E000C000C0000000C000C77
:1021A0000000000000000000001E003F8031807130
:1021B0008063806F806D806D806F8067006000320B
:1021C000003E001C0000000000000000000E000E99
:1021D000001B001B001B001B80318031803F803FB3
:1021E0008031C060C060C0600000000000000000DE
:1021F000007C007E0063006300630063007E007E5D
:102200000063806180618063007F007E00000000C9
:1022100000000000001E003F80318061006000600F
:10222000006000600060006080618031003F001E3F
:102230000000000000000000007C007F006380635D
:102240008061806180618061806180610063006382
:10225000007E007C0000000000000000807F807F86
:102260000060006000600060007F007F0060006030
:1022700000600060807F807F0000000000000000A0
:10228000807F807F0060006000600060007F007FD2
:1022900000600060006000600060006000000000FE
:1022A00000000000001E003F80318061006000607F
:1022B000006080638063806180618031803F001EA8
:1022C000000000000000000080618061806180618A
:1022D00080618061807F807F8061806180618061BA
:1022E000806180610000000000000000003F003FAE
:1022F000000C000C000C000C000C000C000C000C7E
:10230000000C000C003F003F000000000000000037
:1023100080018001800180018001800180018001B5
:102320008001806180618073003F001E000000001A
:1023300000000000C0608061006300660066006C01
:102340000078007C00660066006380618061C06088
:1023500000000000000000000060006000600060FD
:10236000006000600060006000600060006000606D
:10237000807F807F0000000000000000C071C071FD
:10238000C07BC07AC06AC06AC06EC064C060C060F2
:10239000C060C060C060C0600000000000000000BD
:1023A00080718071807980798079806D806D806D99
:1023B00080658067806780678063806300000000BD
:1023C00000000000001E003F0033806180618061DA
:1023D000806180618061806180610033003F001E08
:1023E0000000000000000000007E007F806380612C
:1023F000806180618063007F007E0060006000601B
:10240000006000600000000000000000001E003FAF
:10241000003380618061806180618061806180655E
:1024200080670033803F401E000000000000000075
:10243000007E007F8063806180618063007F007E1A
:1024400000660063006380618061C060000000007E
:1024500000000000000E001F803180310030003885
:10246000001E00078003806180618031003F001EF4
:102470000000000000000000C0FFC0FF000C000CC6
:10248000000C000C000C000C000C000C000C000CEC
:10249000000C000C00000000000000008061806162
:1024A0008061806180618061806180618061806124
:1024B00080618073003F001E0000000000000000EB
:1024C000C060C060C060803180318031001B001B63
:1024D000001B001B000E000E000E00040000000098
:1024E00000000000C0C0C0C0C0C0C0C0C0C0C0CCE0
:1024F000804C804C805E805280528073806180610D
:102500000000000000000000C0C080608061003357
:10251000003B001E000C000C001E001F003B8071E1
:102520008061C0C00000000000000000C0C08061E9
:10253000806100330033001E001E000C000C000CF4
:10254000000C000C000C000C00000000000000005B
:10255000803F803F8001000300030006000C000C58
:102560000018001800300060807F807F00000000AD
:102570000000000F000F000C000C000C000C000C01
:10258000000C000C000C000C000C000C000C000CEB
:10259000000C000F000F0000001800180018000CBD
:1025A000000C000C000C00060006000600060003EC
:1025B00000030003000000000000001E001E0006D3
:1025C00000060006000600060006000600060006DB
:1025D00000060006000600060006001E001E0000A1
:1025E000000C000C001E001200330033806180617B
:1025F00000000000000000000000000000000000DB
:1026000000000000000000000000000000000000CA
:1026100000000000000000000000000000000000BA
:102620000000E0FF0000000000380018000C00006F
:10263000000000000000000000000000000000009A
:10264000000000000000000000000000000000008A
:1026500000000000001F803F80618001801F803FDC
:1026600080618063807FC0380000000000000000AF
:102670000060006000600060006E007F8073806119
:102680008061806180618073007F006E00000000C7
:10269000000000000000000000000000001E003FDD
:1026A000807380610060006080618073003F001E65
:1026B0000000000000000000800180018001800116
:1026C000801D803F80738061806180618061807344
:1026D000803F801D0000000000000000000000009E
:1026E00000000000001E003F00738061807F807F3B
:1026F00000608071003F001E00000000000000002C
:10270000C007C00F000C000C807F807F000C000C05
:10271000000C000C000C000C000C000C0000000071
:1027200000000000000000000000801D803F80735A
:1027300080618061806180618073803F801D800145
:102740008063007F003E0000006000600060006069
:10275000006F807F807180618061806180618061B5
:10276000806180610000000000000000000600069B
:1027700000000000003E003E0006000600060006C5
:10278000000600060006000600000000000000062B
:10279000000600000000003E003E000600060006A5
:1027A0000006000600060006000600060046007E41
:1027B000003C000000600060006000608061006319
:1027C0000066006C007C0076006300638061C0607E
:1027D0000000000000000000003E003E0006000671
:1027E00000060006000600060006000600060006B9
:1027F00000060006000000000000000000000000CD
:102800000000000080DDC0FFC0CEC0CCC0CCC0CC7A
:10281000C0CCC0CCC0CCC0CC000000000000000088
:102820000000000000000000006F807F8071806168
:102830008061806180618061806180610000000052
:10284000000000000000000000000000001E003F2B
:10285000807380618061806180618073003F001EB1
:102860000000000000000000000000000000006EFA
:10287000007F807380618061806180618073007FF0
:10288000006E00600060006000600000000000005A
:102890000000801D803F8073806180618061806165
:1028A0008073803F801D80018001800180010000D5
:1028B00000000000000000000067803F0039003089
:1028C00000300030003000300030003000000000E8
:1028D000000000000000000000000000001E803F1B
:1028E00080610060007F803F80018061007F001E6A
:1028F00000000000000000000000000800180018A0
:10290000007F007F00180018001800180018001839
:10291000801F800F00000000000000000000000089
:102920000000000080618061806180618061806161
:1029300080618063807F803D000000000000000017
:102940000000000000000000C06080318031803154
:10295000001B001B001B000E000E00060000000004
:1029600000000000000000000000000080DD80DDAD
:1029700080DD0055005500550077007700220022C9
:102980000000000000000000000000000000000047
:10299000806100330033001E000C000C001E003369
:1029A0000033806100000000000000000000000013
:1029B000000080618061803100330033001B001B08
:1029C000001B000E000E000E001C007C00700000BA
:1029D0000000000000000000C07FC07F80010003F5
:1029E0000006000C00180030C07FC07F000000000F
:1029F00000008003800700060006000600060006AF
:102A0000000E001C001C000E00060006000600065A
:102A10000006800780030006000600060006000688
:102A20000006000600060006000600060006000676
:102A3000000600060006000600060038003C000CF8
:102A4000000C000C000C000C000E00070007000E2C
:102A5000000C000C000C000C000C003C00380000C6
:102A60000000000000000000000000008038807FAF
:102A7000004700000000000000000000000000000F
:102A8000000000000000000000000102030406072F
:102A9000080900000000010203040000BC2A00082D
:102AA00000000020680000007E100008242B0008B1
:102AB00068000020580800008E1000080000F01088
:102AC000101010FF10101010F000000000000000A7
:102AD00000000000000000000000000000000F04E3
:102AE000040404FF040404040F00000000000000BC
:102AF000000000000000000000000000070A0000C5
:102B0000BA1500080B120000261D00080000000086
:102B100000000000010000001000000000000000A4
:042B20000024F40099
:0400000508000131BD
:00000001FF
